{
  "_format": "hh-sol-artifact-1",
  "contractName": "MarsEnergy",
  "sourceName": "contracts/ERC20Token.sol",
  "abi": [
    {
      "inputs": [],
      "stateMutability": "nonpayable",
      "type": "constructor"
    },
    {
      "anonymous": false,
      "inputs": [
        {
          "indexed": true,
          "internalType": "address",
          "name": "owner",
          "type": "address"
        },
        {
          "indexed": true,
          "internalType": "address",
          "name": "spender",
          "type": "address"
        },
        {
          "indexed": false,
          "internalType": "uint256",
          "name": "value",
          "type": "uint256"
        }
      ],
      "name": "Approval",
      "type": "event"
    },
    {
      "anonymous": false,
      "inputs": [
        {
          "indexed": true,
          "internalType": "address",
          "name": "previousOwner",
          "type": "address"
        },
        {
          "indexed": true,
          "internalType": "address",
          "name": "newOwner",
          "type": "address"
        }
      ],
      "name": "OwnershipTransferred",
      "type": "event"
    },
    {
      "anonymous": false,
      "inputs": [
        {
          "indexed": true,
          "internalType": "address",
          "name": "from",
          "type": "address"
        },
        {
          "indexed": true,
          "internalType": "address",
          "name": "to",
          "type": "address"
        },
        {
          "indexed": false,
          "internalType": "uint256",
          "name": "value",
          "type": "uint256"
        }
      ],
      "name": "Transfer",
      "type": "event"
    },
    {
      "inputs": [
        {
          "internalType": "address",
          "name": "owner",
          "type": "address"
        },
        {
          "internalType": "address",
          "name": "spender",
          "type": "address"
        }
      ],
      "name": "allowance",
      "outputs": [
        {
          "internalType": "uint256",
          "name": "",
          "type": "uint256"
        }
      ],
      "stateMutability": "view",
      "type": "function"
    },
    {
      "inputs": [
        {
          "internalType": "address",
          "name": "spender",
          "type": "address"
        },
        {
          "internalType": "uint256",
          "name": "amount",
          "type": "uint256"
        }
      ],
      "name": "approve",
      "outputs": [
        {
          "internalType": "bool",
          "name": "",
          "type": "bool"
        }
      ],
      "stateMutability": "nonpayable",
      "type": "function"
    },
    {
      "inputs": [
        {
          "internalType": "address",
          "name": "account",
          "type": "address"
        }
      ],
      "name": "balanceOf",
      "outputs": [
        {
          "internalType": "uint256",
          "name": "",
          "type": "uint256"
        }
      ],
      "stateMutability": "view",
      "type": "function"
    },
    {
      "inputs": [
        {
          "internalType": "address",
          "name": "_recipient",
          "type": "address"
        }
      ],
      "name": "buyToken",
      "outputs": [],
      "stateMutability": "payable",
      "type": "function"
    },
    {
      "inputs": [],
      "name": "decimals",
      "outputs": [
        {
          "internalType": "uint8",
          "name": "",
          "type": "uint8"
        }
      ],
      "stateMutability": "view",
      "type": "function"
    },
    {
      "inputs": [
        {
          "internalType": "address",
          "name": "spender",
          "type": "address"
        },
        {
          "internalType": "uint256",
          "name": "subtractedValue",
          "type": "uint256"
        }
      ],
      "name": "decreaseAllowance",
      "outputs": [
        {
          "internalType": "bool",
          "name": "",
          "type": "bool"
        }
      ],
      "stateMutability": "nonpayable",
      "type": "function"
    },
    {
      "inputs": [
        {
          "internalType": "address",
          "name": "spender",
          "type": "address"
        },
        {
          "internalType": "uint256",
          "name": "addedValue",
          "type": "uint256"
        }
      ],
      "name": "increaseAllowance",
      "outputs": [
        {
          "internalType": "bool",
          "name": "",
          "type": "bool"
        }
      ],
      "stateMutability": "nonpayable",
      "type": "function"
    },
    {
      "inputs": [
        {
          "internalType": "address",
          "name": "to",
          "type": "address"
        },
        {
          "internalType": "uint256",
          "name": "amount",
          "type": "uint256"
        }
      ],
      "name": "mint",
      "outputs": [],
      "stateMutability": "nonpayable",
      "type": "function"
    },
    {
      "inputs": [],
      "name": "name",
      "outputs": [
        {
          "internalType": "string",
          "name": "",
          "type": "string"
        }
      ],
      "stateMutability": "view",
      "type": "function"
    },
    {
      "inputs": [],
      "name": "owner",
      "outputs": [
        {
          "internalType": "address",
          "name": "",
          "type": "address"
        }
      ],
      "stateMutability": "view",
      "type": "function"
    },
    {
      "inputs": [],
      "name": "renounceOwnership",
      "outputs": [],
      "stateMutability": "nonpayable",
      "type": "function"
    },
    {
      "inputs": [],
      "name": "symbol",
      "outputs": [
        {
          "internalType": "string",
          "name": "",
          "type": "string"
        }
      ],
      "stateMutability": "view",
      "type": "function"
    },
    {
      "inputs": [],
      "name": "tokenPerETH",
      "outputs": [
        {
          "internalType": "uint256",
          "name": "",
          "type": "uint256"
        }
      ],
      "stateMutability": "view",
      "type": "function"
    },
    {
      "inputs": [],
      "name": "totalSupply",
      "outputs": [
        {
          "internalType": "uint256",
          "name": "",
          "type": "uint256"
        }
      ],
      "stateMutability": "view",
      "type": "function"
    },
    {
      "inputs": [
        {
          "internalType": "address",
          "name": "to",
          "type": "address"
        },
        {
          "internalType": "uint256",
          "name": "amount",
          "type": "uint256"
        }
      ],
      "name": "transfer",
      "outputs": [
        {
          "internalType": "bool",
          "name": "",
          "type": "bool"
        }
      ],
      "stateMutability": "nonpayable",
      "type": "function"
    },
    {
      "inputs": [
        {
          "internalType": "address",
          "name": "from",
          "type": "address"
        },
        {
          "internalType": "address",
          "name": "to",
          "type": "address"
        },
        {
          "internalType": "uint256",
          "name": "amount",
          "type": "uint256"
        }
      ],
      "name": "transferFrom",
      "outputs": [
        {
          "internalType": "bool",
          "name": "",
          "type": "bool"
        }
      ],
      "stateMutability": "nonpayable",
      "type": "function"
    },
    {
      "inputs": [
        {
          "internalType": "address",
          "name": "newOwner",
          "type": "address"
        }
      ],
      "name": "transferOwnership",
      "outputs": [],
      "stateMutability": "nonpayable",
      "type": "function"
    }
  ],
  "bytecode": "0x6080604052620000146200014760201b60201c565b600a620000229190620005ac565b6103e8620000319190620006e9565b6006553480156200004157600080fd5b506040518060400160405280600a81526020017f4d617273456e65726779000000000000000000000000000000000000000000008152506040518060400160405280600381526020017f4d414500000000000000000000000000000000000000000000000000000000008152508160039080519060200190620000c6929190620003a1565b508060049080519060200190620000df929190620003a1565b50505062000102620000f66200015060201b60201c565b6200015860201b60201c565b6200014133620001176200014760201b60201c565b600a620001259190620005ac565b620f4240620001359190620006e9565b6200021e60201b60201c565b62000802565b60006012905090565b600033905090565b6000600560009054906101000a900473ffffffffffffffffffffffffffffffffffffffff16905081600560006101000a81548173ffffffffffffffffffffffffffffffffffffffff021916908373ffffffffffffffffffffffffffffffffffffffff1602179055508173ffffffffffffffffffffffffffffffffffffffff168173ffffffffffffffffffffffffffffffffffffffff167f8be0079c531659141344cd1fd0a4f28419497f9722a3daafe3b4186f6b6457e060405160405180910390a35050565b600073ffffffffffffffffffffffffffffffffffffffff168273ffffffffffffffffffffffffffffffffffffffff16141562000291576040517f08c379a00000000000000000000000000000000000000000000000000000000081526004016200028890620004a4565b60405180910390fd5b620002a5600083836200039760201b60201c565b8060026000828254620002b99190620004f4565b92505081905550806000808473ffffffffffffffffffffffffffffffffffffffff1673ffffffffffffffffffffffffffffffffffffffff1681526020019081526020016000206000828254620003109190620004f4565b925050819055508173ffffffffffffffffffffffffffffffffffffffff16600073ffffffffffffffffffffffffffffffffffffffff167fddf252ad1be2c89b69c2b068fc378daa952ba7f163c4a11628f55a4df523b3ef83604051620003779190620004c6565b60405180910390a362000393600083836200039c60201b60201c565b5050565b505050565b505050565b828054620003af9062000761565b90600052602060002090601f016020900481019282620003d357600085556200041f565b82601f10620003ee57805160ff19168380011785556200041f565b828001600101855582156200041f579182015b828111156200041e57825182559160200191906001019062000401565b5b5090506200042e919062000432565b5090565b5b808211156200044d57600081600090555060010162000433565b5090565b600062000460601f83620004e3565b91507f45524332303a206d696e7420746f20746865207a65726f2061646472657373006000830152602082019050919050565b6200049e816200074a565b82525050565b60006020820190508181036000830152620004bf8162000451565b9050919050565b6000602082019050620004dd600083018462000493565b92915050565b600082825260208201905092915050565b600062000501826200074a565b91506200050e836200074a565b9250827fffffffffffffffffffffffffffffffffffffffffffffffffffffffffffffffff0382111562000546576200054562000797565b5b828201905092915050565b6000808291508390505b6001851115620005a3578086048111156200057b576200057a62000797565b5b60018516156200058b5780820291505b80810290506200059b85620007f5565b94506200055b565b94509492505050565b6000620005b9826200074a565b9150620005c68362000754565b9250620005f57fffffffffffffffffffffffffffffffffffffffffffffffffffffffffffffffff8484620005fd565b905092915050565b6000826200060f5760019050620006e2565b816200061f5760009050620006e2565b8160018114620006385760028114620006435762000679565b6001915050620006e2565b60ff84111562000658576200065762000797565b5b8360020a91508482111562000672576200067162000797565b5b50620006e2565b5060208310610133831016604e8410600b8410161715620006b35782820a905083811115620006ad57620006ac62000797565b5b620006e2565b620006c2848484600162000551565b92509050818404811115620006dc57620006db62000797565b5b81810290505b9392505050565b6000620006f6826200074a565b915062000703836200074a565b9250817fffffffffffffffffffffffffffffffffffffffffffffffffffffffffffffffff04831182151516156200073f576200073e62000797565b5b828202905092915050565b6000819050919050565b600060ff82169050919050565b600060028204905060018216806200077a57607f821691505b60208210811415620007915762000790620007c6565b5b50919050565b7f4e487b7100000000000000000000000000000000000000000000000000000000600052601160045260246000fd5b7f4e487b7100000000000000000000000000000000000000000000000000000000600052602260045260246000fd5b60008160011c9050919050565b611b6180620008126000396000f3fe6080604052600436106100fe5760003560e01c8063715018a611610095578063a457c2d711610064578063a457c2d71461032a578063a9059cbb14610367578063d207b7aa146103a4578063dd62ed3e146103cf578063f2fde38b1461040c576100fe565b8063715018a6146102a15780637e72fb52146102b85780638da5cb5b146102d457806395d89b41146102ff576100fe565b8063313ce567116100d1578063313ce567146101d357806339509351146101fe57806340c10f191461023b57806370a0823114610264576100fe565b806306fdde0314610103578063095ea7b31461012e57806318160ddd1461016b57806323b872dd14610196575b600080fd5b34801561010f57600080fd5b50610118610435565b6040516101259190611710565b60405180910390f35b34801561013a57600080fd5b506101556004803603810190610150919061129f565b6104c7565b60405161016291906116f5565b60405180910390f35b34801561017757600080fd5b506101806104ea565b60405161018d9190611872565b60405180910390f35b3480156101a257600080fd5b506101bd60048036038101906101b89190611250565b6104f4565b6040516101ca91906116f5565b60405180910390f35b3480156101df57600080fd5b506101e8610523565b6040516101f5919061188d565b60405180910390f35b34801561020a57600080fd5b506102256004803603810190610220919061129f565b61052c565b60405161023291906116f5565b60405180910390f35b34801561024757600080fd5b50610262600480360381019061025d919061129f565b6105d6565b005b34801561027057600080fd5b5061028b600480360381019061028691906111eb565b610660565b6040516102989190611872565b60405180910390f35b3480156102ad57600080fd5b506102b66106a8565b005b6102d260048036038101906102cd91906111eb565b610730565b005b3480156102e057600080fd5b506102e9610763565b6040516102f691906116da565b60405180910390f35b34801561030b57600080fd5b5061031461078d565b6040516103219190611710565b60405180910390f35b34801561033657600080fd5b50610351600480360381019061034c919061129f565b61081f565b60405161035e91906116f5565b60405180910390f35b34801561037357600080fd5b5061038e6004803603810190610389919061129f565b610909565b60405161039b91906116f5565b60405180910390f35b3480156103b057600080fd5b506103b961092c565b6040516103c69190611872565b60405180910390f35b3480156103db57600080fd5b506103f660048036038101906103f19190611214565b610932565b6040516104039190611872565b60405180910390f35b34801561041857600080fd5b50610433600480360381019061042e91906111eb565b6109b9565b005b60606003805461044490611a2d565b80601f016020809104026020016040519081016040528092919081815260200182805461047090611a2d565b80156104bd5780601f10610492576101008083540402835291602001916104bd565b820191906000526020600020905b8154815290600101906020018083116104a057829003601f168201915b5050505050905090565b6000806104d2610ab1565b90506104df818585610ab9565b600191505092915050565b6000600254905090565b6000806104ff610ab1565b905061050c858285610c84565b610517858585610d10565b60019150509392505050565b60006012905090565b600080610537610ab1565b90506105cb818585600160008673ffffffffffffffffffffffffffffffffffffffff1673ffffffffffffffffffffffffffffffffffffffff16815260200190815260200160002060008973ffffffffffffffffffffffffffffffffffffffff1673ffffffffffffffffffffffffffffffffffffffff168152602001908152602001600020546105c691906118c4565b610ab9565b600191505092915050565b6105de610ab1565b73ffffffffffffffffffffffffffffffffffffffff166105fc610763565b73ffffffffffffffffffffffffffffffffffffffff1614610652576040517f08c379a0000000000000000000000000000000000000000000000000000000008152600401610649906117d2565b60405180910390fd5b61065c8282610f91565b5050565b60008060008373ffffffffffffffffffffffffffffffffffffffff1673ffffffffffffffffffffffffffffffffffffffff168152602001908152602001600020549050919050565b6106b0610ab1565b73ffffffffffffffffffffffffffffffffffffffff166106ce610763565b73ffffffffffffffffffffffffffffffffffffffff1614610724576040517f08c379a000000000000000000000000000000000000000000000000000000000815260040161071b906117d2565b60405180910390fd5b61072e60006110f1565b565b6000670de0b6b3a764000060065434610749919061194b565b610753919061191a565b905061075f8282610f91565b5050565b6000600560009054906101000a900473ffffffffffffffffffffffffffffffffffffffff16905090565b60606004805461079c90611a2d565b80601f01602080910402602001604051908101604052809291908181526020018280546107c890611a2d565b80156108155780601f106107ea57610100808354040283529160200191610815565b820191906000526020600020905b8154815290600101906020018083116107f857829003601f168201915b5050505050905090565b60008061082a610ab1565b90506000600160008373ffffffffffffffffffffffffffffffffffffffff1673ffffffffffffffffffffffffffffffffffffffff16815260200190815260200160002060008673ffffffffffffffffffffffffffffffffffffffff1673ffffffffffffffffffffffffffffffffffffffff168152602001908152602001600020549050838110156108f0576040517f08c379a00000000000000000000000000000000000000000000000000000000081526004016108e790611832565b60405180910390fd5b6108fd8286868403610ab9565b60019250505092915050565b600080610914610ab1565b9050610921818585610d10565b600191505092915050565b60065481565b6000600160008473ffffffffffffffffffffffffffffffffffffffff1673ffffffffffffffffffffffffffffffffffffffff16815260200190815260200160002060008373ffffffffffffffffffffffffffffffffffffffff1673ffffffffffffffffffffffffffffffffffffffff16815260200190815260200160002054905092915050565b6109c1610ab1565b73ffffffffffffffffffffffffffffffffffffffff166109df610763565b73ffffffffffffffffffffffffffffffffffffffff1614610a35576040517f08c379a0000000000000000000000000000000000000000000000000000000008152600401610a2c906117d2565b60405180910390fd5b600073ffffffffffffffffffffffffffffffffffffffff168173ffffffffffffffffffffffffffffffffffffffff161415610aa5576040517f08c379a0000000000000000000000000000000000000000000000000000000008152600401610a9c90611752565b60405180910390fd5b610aae816110f1565b50565b600033905090565b600073ffffffffffffffffffffffffffffffffffffffff168373ffffffffffffffffffffffffffffffffffffffff161415610b29576040517f08c379a0000000000000000000000000000000000000000000000000000000008152600401610b2090611812565b60405180910390fd5b600073ffffffffffffffffffffffffffffffffffffffff168273ffffffffffffffffffffffffffffffffffffffff161415610b99576040517f08c379a0000000000000000000000000000000000000000000000000000000008152600401610b9090611772565b60405180910390fd5b80600160008573ffffffffffffffffffffffffffffffffffffffff1673ffffffffffffffffffffffffffffffffffffffff16815260200190815260200160002060008473ffffffffffffffffffffffffffffffffffffffff1673ffffffffffffffffffffffffffffffffffffffff168152602001908152602001600020819055508173ffffffffffffffffffffffffffffffffffffffff168373ffffffffffffffffffffffffffffffffffffffff167f8c5be1e5ebec7d5bd14f71427d1e84f3dd0314c0f7b2291e5b200ac8c7c3b92583604051610c779190611872565b60405180910390a3505050565b6000610c908484610932565b90507fffffffffffffffffffffffffffffffffffffffffffffffffffffffffffffffff8114610d0a5781811015610cfc576040517f08c379a0000000000000000000000000000000000000000000000000000000008152600401610cf390611792565b60405180910390fd5b610d098484848403610ab9565b5b50505050565b600073ffffffffffffffffffffffffffffffffffffffff168373ffffffffffffffffffffffffffffffffffffffff161415610d80576040517f08c379a0000000000000000000000000000000000000000000000000000000008152600401610d77906117f2565b60405180910390fd5b600073ffffffffffffffffffffffffffffffffffffffff168273ffffffffffffffffffffffffffffffffffffffff161415610df0576040517f08c379a0000000000000000000000000000000000000000000000000000000008152600401610de790611732565b60405180910390fd5b610dfb8383836111b7565b60008060008573ffffffffffffffffffffffffffffffffffffffff1673ffffffffffffffffffffffffffffffffffffffff16815260200190815260200160002054905081811015610e81576040517f08c379a0000000000000000000000000000000000000000000000000000000008152600401610e78906117b2565b60405180910390fd5b8181036000808673ffffffffffffffffffffffffffffffffffffffff1673ffffffffffffffffffffffffffffffffffffffff16815260200190815260200160002081905550816000808573ffffffffffffffffffffffffffffffffffffffff1673ffffffffffffffffffffffffffffffffffffffff1681526020019081526020016000206000828254610f1491906118c4565b925050819055508273ffffffffffffffffffffffffffffffffffffffff168473ffffffffffffffffffffffffffffffffffffffff167fddf252ad1be2c89b69c2b068fc378daa952ba7f163c4a11628f55a4df523b3ef84604051610f789190611872565b60405180910390a3610f8b8484846111bc565b50505050565b600073ffffffffffffffffffffffffffffffffffffffff168273ffffffffffffffffffffffffffffffffffffffff161415611001576040517f08c379a0000000000000000000000000000000000000000000000000000000008152600401610ff890611852565b60405180910390fd5b61100d600083836111b7565b806002600082825461101f91906118c4565b92505081905550806000808473ffffffffffffffffffffffffffffffffffffffff1673ffffffffffffffffffffffffffffffffffffffff168152602001908152602001600020600082825461107491906118c4565b925050819055508173ffffffffffffffffffffffffffffffffffffffff16600073ffffffffffffffffffffffffffffffffffffffff167fddf252ad1be2c89b69c2b068fc378daa952ba7f163c4a11628f55a4df523b3ef836040516110d99190611872565b60405180910390a36110ed600083836111bc565b5050565b6000600560009054906101000a900473ffffffffffffffffffffffffffffffffffffffff16905081600560006101000a81548173ffffffffffffffffffffffffffffffffffffffff021916908373ffffffffffffffffffffffffffffffffffffffff1602179055508173ffffffffffffffffffffffffffffffffffffffff168173ffffffffffffffffffffffffffffffffffffffff167f8be0079c531659141344cd1fd0a4f28419497f9722a3daafe3b4186f6b6457e060405160405180910390a35050565b505050565b505050565b6000813590506111d081611afd565b92915050565b6000813590506111e581611b14565b92915050565b6000602082840312156111fd57600080fd5b600061120b848285016111c1565b91505092915050565b6000806040838503121561122757600080fd5b6000611235858286016111c1565b9250506020611246858286016111c1565b9150509250929050565b60008060006060848603121561126557600080fd5b6000611273868287016111c1565b9350506020611284868287016111c1565b9250506040611295868287016111d6565b9150509250925092565b600080604083850312156112b257600080fd5b60006112c0858286016111c1565b92505060206112d1858286016111d6565b9150509250929050565b6112e4816119a5565b82525050565b6112f3816119b7565b82525050565b6000611304826118a8565b61130e81856118b3565b935061131e8185602086016119fa565b61132781611aec565b840191505092915050565b600061133f6023836118b3565b91507f45524332303a207472616e7366657220746f20746865207a65726f206164647260008301527f65737300000000000000000000000000000000000000000000000000000000006020830152604082019050919050565b60006113a56026836118b3565b91507f4f776e61626c653a206e6577206f776e657220697320746865207a65726f206160008301527f64647265737300000000000000000000000000000000000000000000000000006020830152604082019050919050565b600061140b6022836118b3565b91507f45524332303a20617070726f766520746f20746865207a65726f20616464726560008301527f73730000000000000000000000000000000000000000000000000000000000006020830152604082019050919050565b6000611471601d836118b3565b91507f45524332303a20696e73756666696369656e7420616c6c6f77616e63650000006000830152602082019050919050565b60006114b16026836118b3565b91507f45524332303a207472616e7366657220616d6f756e742065786365656473206260008301527f616c616e636500000000000000000000000000000000000000000000000000006020830152604082019050919050565b60006115176020836118b3565b91507f4f776e61626c653a2063616c6c6572206973206e6f7420746865206f776e65726000830152602082019050919050565b60006115576025836118b3565b91507f45524332303a207472616e736665722066726f6d20746865207a65726f20616460008301527f64726573730000000000000000000000000000000000000000000000000000006020830152604082019050919050565b60006115bd6024836118b3565b91507f45524332303a20617070726f76652066726f6d20746865207a65726f2061646460008301527f72657373000000000000000000000000000000000000000000000000000000006020830152604082019050919050565b60006116236025836118b3565b91507f45524332303a2064656372656173656420616c6c6f77616e63652062656c6f7760008301527f207a65726f0000000000000000000000000000000000000000000000000000006020830152604082019050919050565b6000611689601f836118b3565b91507f45524332303a206d696e7420746f20746865207a65726f2061646472657373006000830152602082019050919050565b6116c5816119e3565b82525050565b6116d4816119ed565b82525050565b60006020820190506116ef60008301846112db565b92915050565b600060208201905061170a60008301846112ea565b92915050565b6000602082019050818103600083015261172a81846112f9565b905092915050565b6000602082019050818103600083015261174b81611332565b9050919050565b6000602082019050818103600083015261176b81611398565b9050919050565b6000602082019050818103600083015261178b816113fe565b9050919050565b600060208201905081810360008301526117ab81611464565b9050919050565b600060208201905081810360008301526117cb816114a4565b9050919050565b600060208201905081810360008301526117eb8161150a565b9050919050565b6000602082019050818103600083015261180b8161154a565b9050919050565b6000602082019050818103600083015261182b816115b0565b9050919050565b6000602082019050818103600083015261184b81611616565b9050919050565b6000602082019050818103600083015261186b8161167c565b9050919050565b600060208201905061188760008301846116bc565b92915050565b60006020820190506118a260008301846116cb565b92915050565b600081519050919050565b600082825260208201905092915050565b60006118cf826119e3565b91506118da836119e3565b9250827fffffffffffffffffffffffffffffffffffffffffffffffffffffffffffffffff0382111561190f5761190e611a5f565b5b828201905092915050565b6000611925826119e3565b9150611930836119e3565b9250826119405761193f611a8e565b5b828204905092915050565b6000611956826119e3565b9150611961836119e3565b9250817fffffffffffffffffffffffffffffffffffffffffffffffffffffffffffffffff048311821515161561199a57611999611a5f565b5b828202905092915050565b60006119b0826119c3565b9050919050565b60008115159050919050565b600073ffffffffffffffffffffffffffffffffffffffff82169050919050565b6000819050919050565b600060ff82169050919050565b60005b83811015611a185780820151818401526020810190506119fd565b83811115611a27576000848401525b50505050565b60006002820490506001821680611a4557607f821691505b60208210811415611a5957611a58611abd565b5b50919050565b7f4e487b7100000000000000000000000000000000000000000000000000000000600052601160045260246000fd5b7f4e487b7100000000000000000000000000000000000000000000000000000000600052601260045260246000fd5b7f4e487b7100000000000000000000000000000000000000000000000000000000600052602260045260246000fd5b6000601f19601f8301169050919050565b611b06816119a5565b8114611b1157600080fd5b50565b611b1d816119e3565b8114611b2857600080fd5b5056fea26469706673582212208dd20de2bce57c89bb8f44a2752b38e5decd30277b60882bb1969b55902fbb3764736f6c63430008000033",
  "linkReferences": {},
  "deployedLinkReferences": {}
}